:020000040800F2
:10000000581E002065010008F94300089D3F0008C4
:10001000F5430008DD070008D97A00080000000059
:10002000000000000000000000000000D9460008A9
:100030002509000800000000994600083147000823
:100040007F0100087F0100087F0100087F01000890
:100050007F0100087F0100087F0100087F01000880
:100060007F0100087F0100087F0100087F01000870
:100070007F0100087F0100087F0100087F01000860
:100080007F0100087F0100087F0100087F01000850
:100090007F0100087F0100087F0100087F01000840
:1000A0007F0100087F0100087F0100087F01000830
:1000B0007F0100087F0100087F0100087F01000820
:1000C0007F0100087F0100087F0100087F01000810
:1000D0007F0100087F0100087F0100087F01000800
:1000E0007F0100087F0100087F0100080000000078
:1000F0000000000000000000000000000000000000
:1001000000000000000000007F0100087F010008DF
:100110007F0100087F0100086D4800087D48000845
:100120007F0100087F0100087F0100087F010008AF
:100130007F0100087F0100087F0100087F0100089F
:100140007F0100087F0100087F0100086D4400085E
:10015000DFF80CD000F05AFA00480047018300088D
:10016000581E00200648804706480047FEE7FEE785
:10017000FEE7FEE7FEE7FEE7FEE7FEE7FEE7FEE757
:10018000F9470008510100082DE9F05F05460020FD
:1001900092469B4688460646814640241BE02846F8
:1001A00041464746224600F069F853465A46C01A6F
:1001B000914110D311461846224600F050F82D1AEE
:1001C00067EB01084F4622460120002100F047F866
:1001D00017EB00094E41201EA4F10104DFDC484664
:1001E00031462A464346BDE8F09F40EA01039B079B
:1001F00003D009E008C9121F08C0042AFAD203E09C
:1002000011F8013B00F8013B521EF9D27047D2B2FF
:1002100001E000F8012B491EFBD270470022F6E7EF
:1002200010B513460A4604461946FFF7F0FF20466C
:1002300010BD30B50B46014600202022012409E004
:1002400021FA02F59D4205D303FA02F5491B04FA8F
:1002500002F52844151EA2F10102F1DC30BD202A6E
:1002600004DB203A00FA02F1002070479140C2F10D
:10027000200320FA03F3194390407047202A04DB3F
:10028000203A21FA02F00021704721FA02F3D0400F
:10029000C2F1200291400843194670472DE9FE4FF4
:1002A000804681EA0300C00F0C46009021F0004117
:1002B00023F00045B8EB0200A94105D24046214693
:1002C00090461C460B46024623F00040104347D0A0
:1002D000270DC7F30A00C3F30A510290401A019098
:1002E00040286BDAC3F3130040F4801B0098924659
:1002F00020B10023D2EB030A63EB0B0B01985946A4
:10030000C0F140025046FFF7AAFF06460D46504690
:100310005946019A00F08CF910EB08006141002465
:1003200087EA115284EAE7731A4340D0009A62B315
:10033000019A012A4FEA075215DC001B61EB02010A
:100340004FF0004202EA0752CDE90042001C41F59D
:10035000801132462B4600F08CF903B0BDE8F08FD7
:1003600040462146F9E7001B61EB0201001C41F504
:10037000801300185B412018A2F5001747EB03011A
:1003800040EAD570B6196D4111E06D084FEA3606A6
:1003900045EAC0754FEA0752001B61EB0201001CE1
:1003A00041F5801149084FEA3000001951413246A9
:1003B0002B4603B0BDE8F04F00F04CB90098012285
:1003C00040000023D0EB020263EBE073009821466B
:1003D0004FEAE074B8EB000061EB0401E9E783F059
:1003E00000435BE781F0004158E72DE9FE4F81EAC9
:1003F000030404F0004421F0004100944FF0000B8E
:1004000023F0004350EA01045ED052EA03045BD0BB
:10041000C3F30A54C1F30A552C44A4F2F3340194F3
:10042000A0FB0254C1F3130141F48011C3F3130381
:1004300043F4801301FB024400FB034E840A970A35
:1004400044EA815447EA8357A4FB076802958D0A62
:1004500005FB07854FEA932C04FB0C542705029DEE
:100460004FEA065847EA1637B5EB08056EEB070C5E
:10047000870E920E47EA811742EA8312A7FB020118
:10048000B6EB0B0164EB00042B0D43EA0C335E1852
:1004900044EB1C50DA465146E7FB0201C5F3130456
:1004A0004FEA0B3343EA14534FEA0432019C43EA08
:1004B0000603A4F10C040294009CCDE900B400F002
:1004C000D8F803B0BDE8F08F00200146F9E72DE928
:1004D000F04D81EA030404F0004B21F0004514467E
:1004E0004FF0000A23F0004150EA050220D054EA00
:1004F00001021DD0C5F30A570246C5F31303C1F329
:100500001300C1F30A5640F4801543F48013A7EB9F
:100510000608101BD64608F2FD3873EB050002D31F
:1005200008F1010801E092185B41B8F1000F03DA0D
:1005300000200146BDE8F08D00204FF480110646F2
:1005400084460EE0171B73EB050705D3121B63EB04
:10055000050306434CEA010C49084FEA30009218A3
:100560005B4150EA0107EDD152EA030012D082EA62
:10057000040083EA0501084305D0101BAB4106D2F5
:100580000122002306E000224FF0004302E06FF05A
:10059000010253101AEB06004CEB085110EB0A0055
:1005A00041EB0B01BDE8F04D00F054B8C1F30A5225
:1005B000C1F3130140F2FF3341F480119A4202DA91
:1005C00000200146704740F233439A42A2F2334280
:1005D00002DC5242FFF752BEFFF741BE30B5041EA7
:1005E00071F1000404DB4FF00044404264EB010170
:1005F000141E73F1000405DB1C464FF00043524209
:1006000063EB0403994208BF904230BD064C074D8E
:1006100006E0E06840F0010394E8070098471034D2
:10062000AC42F6D3FFF798FD648F0008848F000872
:10063000202A06DBCB17203A41FA02F043EAE073A6
:1006400006E041FA02F3D040C2F120029140084393
:100650001946704710B5141E73F1000408DA401CE7
:1006600041F1000192185B411A4301D120F00100D1
:1006700010BD2DE9F04D92469B4611B1B1FA81F2C1
:1006800002E0B0FA80F220329046FFF7E8FD04461F
:100690000F4640EA0A0041EA0B0153465A46084316
:1006A00013D0114653EA010019D0C8F14002504658
:1006B000FFF7E4FD05460E46504659464246FFF711
:1006C000CEFD084305D0012004E020463946BDE8B0
:1006D000F08D0020054346EAE0762C4337430A9824
:1006E0006305E40AA0EB08000022FD0A44EA47542F
:1006F0000A3002D500200146E9E7010510196941D9
:10070000DDE9084500196941BDE8F04DA2E770B583
:100710008C1810F8015B15F0070301D110F8013BAC
:100720002A1106D110F8012B03E010F8016B01F833
:10073000016B5B1EF9D12B0705D40023521E0DD48B
:1007400001F8013BFAE710F8013BCB1A921C03E0D9
:1007500013F8015B01F8015B521EF9D5A142D8D311
:10076000002070BD80B584B00290002001900298F6
:1007700000688068C007002828D0FFE7029800685A
:10078000816821F00101816001F038F80190FFE7F4
:10079000029800688068C007002816D0FFE701F0C3
:1007A0002DF80199401A03280ED3FFE70298816AB9
:1007B00041F0100181620298C16A41F00101C162F9
:1007C00001208DF80F0005E0E2E7FFE700208DF83B
:1007D0000F00FFE79DF80F0004B080BDFFE7FEE7C4
:1007E00084B0134684468DF80F000291ADF80620C0
:1007F0009DF80F000146232800911DD80099DFE8DD
:1008000001F012131415161B1B1B1B1B1B1B1B1BA0
:100810001B1B1B1B1B1B1B1B1B1B1B1B1B1B1B1B28
:100820001B1B1718191A08E007E006E005E004E0B2
:1008300003E002E001E000E0FFE7002004B07047C1
:100840000020704780B584B040F68450C2F20000AA
:1008500040F68C11C2F2000100220390029204F0D3
:100860002DFB40F2A451C2F20001039A0190104600
:1008700004F016FB02990090084604B080BD000009
:1008800080B586B005900491059940F68450C2F277
:100890000000039004F004FB03990290084604F062
:1008A000B7FA0599049A128801900846114600F09B
:1008B00005F800210090084606B080BD80B586B0DE
:1008C0000A460490ADF80E1000208DF80D0040F699
:1008D0008450C2F20000D0F8B80202900298D0F81A
:1008E0001402002804D0FFE701208DF8170015E05E
:1008F0000499BDF80E2040F68450C2F20000019029
:1009000004F0DCFA01990090084604F0ADFB8DF884
:100910000D009DF80D008DF81700FFE79DF81700FA
:1009200006B080BD704700007047000082B00190A3
:1009300041F6C010C2F200000078002803D1FFE7A2
:10094000002000900FE00198C0F3C62141F640124C
:10095000C2F20002515CC0F3022021FA00F000F064
:1009600001000090FFE7009802B0704780B584B0A6
:10097000FFE741F6C010C2F200008069019000F06C
:10098000C3FA0390039807F099F80290FFE70298E2
:1009900001998842EDD1FFE703980299884203D27A
:1009A000FFE703F0FDFAFFE7039804B080BD000005
:1009B00080B58EB00B900A9109920A98002804D055
:1009C000FFE70998812803D3FFE700200C90BFE0E0
:1009D0000B98FFF7ABFF002803D1FFE701200C9035
:1009E000B6E0FFF7C3FF0790BDF82C000B90EFF3C4
:1009F00005800D900D980B9941F40022002818BF36
:100A000011460B910A980890099800280BD1FFE72E
:100A10000B98079900220292029B00F09DF8039028
:100A200003980C9094E00998082821D8FFE700204B
:100A3000049005900899099A04A8FFF7D6FB099934
:100A400001F007010B9A42EA01410B910B9941F029
:100A50004071079A049BDDF814C0019008461146C6
:100A60001A46634600F078F8039003980C906FE004
:100A700000F068FA4FF4E02101EA0040069008987F
:100A8000016840680590049108980830089009981A
:100A90000838099006980B9908430B900B9840F082
:100AA00080700799049A059B00F056F8039003980C
:100AB000002803D1FFE700200C9049E006984FF68C
:100AC000017108430B90FFE7099809281DD3FFE740
:100AD00008980168406805900491089808300890CB
:100AE0000998083809900B980799049A059B00F01B
:100AF00033F803900B9801300B900398002803D132
:100B0000FFE700200C9023E0DEE700200490059032
:100B10000899099A04A8FFF768FB0B9921F47F4113
:100B20000B9109990B9A42EA01210B910B9941F023
:100B30000071079A049BDDF814C000900846114626
:100B40001A46634600F008F8039003980C90FFE7FC
:100B50000C980EB080BD000080B58CB00A90099151
:100B60000892079307200590FFE7059800286BD0AF
:100B7000FFE700F0F1F90490049800F03F0041F223
:100B80004051C2F2000101EB0010069004984FF4AE
:100B9000700101EA803001900A980199084309998F
:100BA0004FF0805202EAD101084308994FF00052F9
:100BB00002EA9101084307994FF0804202EA51018D
:100BC000084340F04060039006980C30039903F00E
:100BD00041FA03909DF80F00400700282FD5FFE74A
:100BE000039880F080600390039880F000400390A9
:100BF000039800F000400290099820F0004002990C
:100C0000084306990860089820F0004002990843BC
:100C100006994860079820F0004002990843069919
:100C2000886006980C30039906F02EFF002805D046
:100C3000FFE703F0C9F901200B900AE004E0FFE7A9
:100C400005980138059090E703F0B4F900200B9067
:100C5000FFE70B980CB080BD87B00590049103921C
:100C60000498FE2804D8FFE70398FF2803D3FFE782
:100C70000020069037E0002002900190FFE70198E5
:100C800003282DD8FFE705980199C840C007002820
:100C90001ED0FFE704980090FFE700980399884270
:100CA00015D8FFE7009800F00701012202FA01F1D0
:100CB000029A02EBD00041F64012C2F20002135C2D
:100CC00019431154FFE7009801300090E5E7FFE772
:100CD000029820300290FFE7019801300190CEE7A2
:100CE00001200690FFE7069807B0704780B58EB0E8
:100CF0000D900C9141F6C010C2F20000002101706D
:100D000041F64011C2F200018022059008461146CA
:100D1000FFF784FA48F6C050C0F60000182107F02B
:100D20005BF8ADF82A000598016A42F26B72CEF2C8
:100D3000A51291420FD0FFE741F6C010C2F20000A9
:100D400042F26B71CEF2A5110162BDF82A1041800A
:100D50000121C1611CE041F6C010C2F200004088D0
:100D6000BDF82A1088420AD0FFE7BDF82A0041F6F4
:100D7000C011C2F2000148800120C86107E041F6BD
:100D8000C010C2F20000C1690131C161FFE7FFE795
:100D900041F6C010C2F20000C069012812D1FFE77D
:100DA00041F6C010C2F20000002141704160816034
:100DB000C16041F24050C2F200004FF48061FFF781
:100DC0002DFA20E000200690FFE706983F2819D86A
:100DD000FFE7069841F24051C2F2000101EB00101A
:100DE0000B900B98C07B4007002806D5FFE70B98B7
:100DF000C16821F04061C160FFE7FFE7069801305C
:100E00000690E2E7FFE741F6C010C2F20000C069B9
:100E1000012818D1FFE700F083F80890089800280F
:100E200004D0FFE700F076F8099002E00020099076
:100E3000FFE7099841F6C011C2F2000148610020A5
:100E40008861086103E000F06BF80890FFE70898FC
:100E500000282ED0FFE70D980021FE220491039276
:100E6000FFF7FAFE0F21EF22029008461146FFF726
:100E7000F3FE0421019008460399039AFFF7ECFE64
:100E80000090FFF773FD0790079941F6C010C2F27A
:100E90000000C2694FF60070C0F20030049BFFF7FB
:100EA0005BFE0C99002903D0FFE700F005F8FFE78F
:100EB000FFE708980EB080BD80B584B041F6C01041
:100EC000C2F200000078002803D0FFE70120039061
:100ED00016E041F6C010C2F200000121017001913C
:100EE000FFF744FD029002994FF60170C0F2003006
:100EF00000220092009BFFF72FFE01990391FFE76C
:100F0000039804B080BD000041F20400CEF200005E
:100F10000068704740F22000C2F20000006870478D
:100F20004EF6FC50CEF20000016841F08071016085
:100F300041F20000CEF20000016841F001010160C1
:100F40000120704780B541F6C010C2F200000130A8
:100F500006F036FE80BD000080B541F6C010C2F23A
:100F60000000043006F01CFE80BD000080B584B097
:100F70004FF2E870C1F6FF70006803904FF2EC701A
:100F8000C1F6FF70006802904FF2F070C1F6FF707A
:100F90000068019001980399084403900398002881
:100FA00013D0FFE7039840F25C11C2F200018A1CE3
:100FB0000823009111461A4603F010F80298009990
:100FC0001231042203F00AF8FFE704B080BD0000EC
:100FD00085B00390029100208DF807000090FFE794
:100FE000039890F82400012804D1FFE702208DF82F
:100FF0001300C7E00398012180F82410FFE7FFE702
:1010000002984068062813D8FFE703980068406BF1
:1010100002990A68496801EB810105391F238B4059
:10102000984302FA01F108430399096848632BE0E9
:10103000029840680C2813D8FFE703980068006BFB
:1010400002990A68496801EB810123391F238B400B
:10105000984302FA01F1084303990968086312E012
:1010600003980068C06A02990A68496801EB810127
:1010700041391F238B40984302FA01F10843039939
:101080000968C862FFE7FFE7029800680A2812D3E0
:10109000FFE703980068C06802990A68896802EB54
:1010A00042021E3A07239340984391400843039914
:1010B0000968C86010E003980068006902990A682E
:1010C000896802EB4202072393409843914008430A
:1010D000039909680861FFE702980068102805D0A5
:1010E000FFE702980068112841D1FFE703980068E4
:1010F00042F20041C4F2010188422ED1FFE7039879
:10110000006880680002002826D4FFE70398006882
:10111000816841F4000181600298006810281AD1AA
:10112000FFE740F22000C2F2000000684DF6836144
:10113000C4F21B31A0FB0101890C01EB81014900C4
:101140000091FFE70098002804D0FFE700980138DD
:101150000090F7E7FFE7FFE708E00398816A41F0B6
:101160002001816201208DF80700FFE7FFE7FFE71C
:101170000398002180F82410FFE79DF807008DF800
:101180001300FFE79DF8130005B0704780B588B0E5
:10119000069000208DF817000490039002900698A6
:1011A000002804D1FFE701208DF81F00F8E0069821
:1011B0008068002807D0FFE70698007D002801D04E
:1011C000FFE7FFE7FFE70698806A00280AD1FFE7FC
:1011D00006980021C162069880F82410069800F055
:1011E000E3F8FFE70698FFF7BDFA8DF817000698B9
:1011F000806AC006002800F1C580FFE79DF817004F
:10120000002840F0BF80FFE70698806A40F00200A7
:1012100020F488500699886206984168C269114393
:10122000007B41EA400003990843039006988068D8
:101230000121B0F5807F019108D0FFE70698806812
:101240000138B0FA80F040090190FFE70198049955
:10125000C00741F48072002818BF11460491069817
:10126000007D01281FD1FFE70698007B00280ED1E2
:10127000FFE7069880694EF20001CFF6FF7101EB9F
:1012800040300499084340F4006004900AE0069856
:10129000816A41F0200181620698C16A41F0010132
:1012A000C162FFE7FFE706980068406820F46940E4
:1012B00004990843069909684860069800688068A0
:1012C0004FF2FD71CFF6E17108400399084306998A
:1012D00009688860069880680121B0F5807F0091D8
:1012E00008D0FFE7069880680138B0FA80F040091E
:1012F0000090FFE7009800F00100002818BF4FF4AD
:101300008070B0F5807F09D1FFE706980069002161
:10131000CFF6F07101EB00500290FFE706980068ED
:10132000C06A20F470000299084306990968C862EF
:1013300006980068806840F6FE61CFF61F7108408D
:10134000039988420CD1FFE706980021C1620698F4
:10135000806A40F0010020F002000699886210E0E7
:101360000698806A40F0100020F00200069988621A
:101370000698C16A41F00101C16201208DF8170091
:10138000FFE708E00698816A41F0100181620120C0
:101390008DF81700FFE79DF817008DF81F00FFE795
:1013A0009DF81F0008B080BD80B588B00790002070
:1013B00006900590049003900798006842F200415F
:1013C000C4F2010188422AD1FFE7FFE741F2180089
:1013D000C4F20200016841F400710160006800F489
:1013E000007002900298FFE7FFE741F21800C4F294
:1013F0000200016841F008010160006800F0080087
:1014000001900198FFE7012003900320049040F62B
:101410000040C4F2010003A900F026F8FFE708B07D
:1014200080BD000080B584B0039000F0E7F9029021
:101430000398019001980130002809D0FFE740F29D
:101440007610C2F200000078019908440190FFE78D
:10145000FFE700F0D3F90299401A0199884201D2BE
:10146000FFE7F6E704B080BD90B00F900E9100202A
:101470000D900990FFE70E9800680D99C84000286C
:1014800000F08781FFE70D98012101FA00F00C9030
:101490000E9800680C9908400B900B980C998842A4
:1014A00040F07381FFE70E9840680028059051D006
:1014B000FFE7059801283AD0FFE7059802283FD0BA
:1014C000FFE70598032860D0FFE70598112832D080
:1014D000FFE70598122838D0FFE70020C1F211007D
:1014E0000599814236D0FFE70020C1F2120005992C
:1014F00081422FD0FFE70020C1F2210005998142EF
:1015000028D0FFE70020C1F222000599814221D0B6
:10151000FFE70020C1F23100059981421AD0FFE7B0
:101520000020C1F232000599814213D030E00E98BC
:10153000C06809902DE00E98C0680430099028E03A
:101540000E98C0680830099023E00E98C0680C30EF
:1015500009901EE00E988068002803D1FFE7042060
:10156000099011E00E988068012806D1FFE7082055
:1015700009900C980F99086105E0082009900C98D3
:101580000F994861FFE7FFE703E00020099000E0C2
:10159000FFE70B98FF2803D8FFE70F98049003E0BC
:1015A0000F9804300490FFE7049808900B98FF28E8
:1015B00004D8FFE70D988000039006E00D986FF0C7
:1015C0001F0101EB80000390FFE703980790089844
:1015D000006807990F228A409043099A02FA01F1A4
:1015E0000843089908600E98C079C006002840F1A9
:1015F000CB80FFE7FFE741F21800C4F20200016868
:1016000041F001010160006800F0010006900698B9
:10161000FFE70D9820F003000821C4F201014058B3
:101620000A900D9800F0030080000F2101FA00F0ED
:101630000A9921EA00000A900F9840F60001C4F2CE
:101640000101884203D1FFE70020029026E00F98B5
:1016500040F60041C4F20101884203D1FFE70120B6
:10166000019018E00F9841F20001C4F20101884294
:1016700003D1FFE7022000900AE00F9841F20041F9
:10168000C4F201010422884208BF03220092FFE74E
:1016900000980190FFE701980290FFE702980D99EA
:1016A00001F00301890088400A9908430A900A98CA
:1016B0000D9921F003010822C4F2010288500E980E
:1016C0008079C007002809D0FFE70B9840F200415D
:1016D000C4F201010A681043086009E00B9840F267
:1016E0000041C4F201010A6822EA00000860FFE735
:1016F0000E9880798007002809D5FFE70B9840F203
:101700000441C4F201010A681043086009E00B9823
:1017100040F20441C4F201010A6822EA00000860B4
:10172000FFE70E988079C006002809D5FFE70B98DF
:1017300040F20841C4F201010A681043086009E060
:101740000B9840F20841C4F201010A6822EA000045
:101750000860FFE70E9880798006002809D5FFE72A
:101760000B9840F20C41C4F201010A681043086072
:1017700009E00B9840F20C41C4F201010A6822EA28
:1017800000000860FFE7FFE7FFE70D9801300D90CC
:1017900071E610B07047000082B00A460190ADF8C3
:1017A000021001988068BDF80210084204D0FFE7DB
:1017B00001208DF8010003E000208DF80100FFE713
:1017C0009DF8010002B0704782B013468C4601902C
:1017D000ADF802108DF801209DF80100002805D019
:1017E000FFE7BDF802000199086105E0BDF80200BD
:1017F000000401990861FFE702B0704741F65420E8
:10180000C2F200000068704740F27610C2F2000099
:10181000007841F65421C2F200010A6810440860C1
:101820007047000080B582B042F20000C4F20200AE
:10183000016841F010010160032000F0A3F80020CE
:10184000019000F007F8009000F03EF8019802B017
:1018500080BD000080B582B0009040F22000C2F24E
:101860000000006840F27611C2F2000109784FF4DE
:101870007A72B2FBF1F1B0FBF1F002F069F80028E6
:1018800004D0FFE701208DF8070018E000980F282A
:101890000DD8FFE700994FF0FF30002200F052F81A
:1018A000009840F27811C2F20001086003E00120C4
:1018B0008DF8070003E000208DF80700FFE79DF892
:1018C000070002B080BD000083B0FFE741F21800BE
:1018D000C4F20200016841F001010160006800F0FB
:1018E000010002900298FFE7FFE741F21C00C4F2FA
:1018F0000200016841F080510160006800F08050F2
:1019000001900198FFE7FFE70420C4F2010001689D
:101910000091009921F0E0610091009941F000717F
:10192000009100990160FFE703B0704780B582B075
:1019300001468DF807009DF90700009106F0CEF8EA
:1019400002B080BD80B588B003468DF81F000691B7
:10195000059200200490039306F0DAF804909DF9B4
:101960001F000499069A059B0290084611461A46E4
:1019700002F044FD029901900846019906F0D0F862
:1019800008B080BD80B582B00190019806F0EAF8F9
:1019900002B080BD82B00A460190ADF80210BDF8D9
:1019A0000200019909684862002002B070470000F7
:1019B00084B013468C4603908DF80B10ADF80820C8
:1019C00003980068406A00909DF80B00002809D138
:1019D000FFE7BDF80800009941EA00400399096853
:1019E000886233E003980068806A009901EB104038
:1019F000009000208DF80700FFE79DF807009DF894
:101A00000B100139884213D2FFE7039800689DF854
:101A1000071000EB8100D0F80401009901EB1040A1
:101A20000090FFE79DF8070001308DF80700E4E71C
:101A3000BDF80800009941EA0040039909689DF843
:101A40000B2001EB8201C1F80001FFE7002004B088
:101A50007047000080B582B001900198D0F8FC0377
:101A600004F03AF902B080BD80B584B00A46039014
:101A70008DF80B100398D0F8FC139DF80B30C3EBD6
:101A8000C30C00EB8C00806C019008461946019B4A
:101A900000921A4603F0D8FF04B080BD80B584B030
:101AA0000A4603908DF80B100398D0F8FC139DF8AC
:101AB0000B30C3EBC30C00EB8C00D0F80802019094
:101AC00008461946019B00921A4604F07DF804B0BE
:101AD00080BD000080B582B001900198D0F8FC0371
:101AE00004F000F902B080BD80B584B00A460290CF
:101AF0008DF807109DF80700000600280FD5FFE7B6
:101B000002989DF8071001F00F01C1EBC10100EB35
:101B100081003C3000900098012141700FE0029854
:101B20009DF8071001F00F01C1EBC10100EB81002E
:101B300000F5FE700090009800214170FFE79DF8CD
:101B4000070000F00F0000990870FFE7029890F876
:101B5000BC03012804D1FFE702208DF80F0014E038
:101B60000298012180F8BC13FFE7FFE702980068A4
:101B7000009905F02DF8FFE70298002180F8BC13CA
:101B8000FFE700208DF80F00FFE79DF80F0004B07D
:101B900080BD000080B584B00A4602908DF8071021
:101BA0009DF8070000F00F0002994968884204D9A7
:101BB000FFE701208DF80F004DE09DF807000006BB
:101BC00000280FD5FFE702989DF8071001F00F01DC
:101BD000C1EBC10100EB81003C3000900098012175
:101BE00041700FE002989DF8071001F00F01C1EB62
:101BF000C10100EB810000F5FE700090009800210B
:101C00004170FFE70098002181709DF8070000F007
:101C10000F0000990870FFE7029890F8BC030128B4
:101C200004D1FFE702208DF80F0014E00298012193
:101C300080F8BC13FFE7FFE702980068009905F001
:101C40009DFAFFE70298002180F8BC13FFE700200F
:101C50008DF80F00FFE79DF80F0004B080BD000075
:101C600082B00A4601908DF8031001989DF8031088
:101C700001F00F01C1EBC10100EB8100D0F81402AB
:101C800002B0704710B586B09C4696460C4604904C
:101C90008DF80F10ADF80C208DF80B3000208DF86A
:101CA0000A009DF80F00000600280FD5FFE70498F2
:101CB0009DF80F1001F00F01C1EBC10100EB810095
:101CC0003C3001900198012141700FE004989DF88B
:101CD0000F1001F00F01C1EBC10100EB810000F515
:101CE000FE700190019800214170FFE79DF80F0000
:101CF00000F00F0001990870BDF80C000199886090
:101D00009DF80B000199C87001984078002804D014
:101D1000FFE701980178C180FFE79DF80B000228DA
:101D200004D1FFE7019800210171FFE7FFE7049864
:101D300090F8BC03012804D1FFE702208DF81700BA
:101D400015E00498012180F8BC13FFE7FFE7049831
:101D50000068019904F00AFEFFE70498002180F86A
:101D6000BC13FFE79DF80A008DF81700FFE79DF808
:101D7000170006B010BD000080B586B08C460590F7
:101D80008DF813100392029305989DF8131001F03B
:101D90000F01C1EBC10100EB810000F5FE70019065
:101DA00003980199C860029801994861019800213F
:101DB0008161019841709DF8130000F00F000199B6
:101DC00008709DF813000007002806D1FFE705986A
:101DD0000068019905F0CEF805E0059800680199C2
:101DE00005F074FAFFE7002006B080BD80B586B02C
:101DF0000A4604908DF80F109DF80F0000F00F00B8
:101E000004994968884204D9FFE701208DF817003A
:101E10005BE09DF80F00000600280FD5FFE704984F
:101E20009DF80F1001F00F01C1EBC10100EB810023
:101E30003C3002900298012141700DE004989DF819
:101E40000F10C1EBC10100EB810000F5FE700290A4
:101E5000029800214170FFE70298012181709DF8EE
:101E60000F0000F00F0002990870FFE7049890F847
:101E7000BC03012804D1FFE702208DF8170024E0FD
:101E80000498012180F8BC13FFE7FFE7049800687D
:101E9000029905F0C3F99DF80F10090700290AD12E
:101EA000FFE70498016800F57170019008460199F8
:101EB00005F028F9FFE7FFE70498002180F8BC133C
:101EC000FFE700208DF81700FFE79DF8170006B028
:101ED00080BD000080B586B08C4605908DF813104B
:101EE0000392029305989DF8131001F00F01C1EBC6
:101EF000C10100EB81003C30019003980199C8605A
:101F0000029801994861019800218161019801219D
:101F100041709DF8130000F00F00019908709DF8C2
:101F200013000007002806D1FFE705980068019913
:101F300005F020F805E005980068019905F0C6F95C
:101F4000FFE7002006B080BD80B590B00F900F98DD
:101F500000680E900E980D900F98006805F08CFBAD
:101F6000002840F0DC82FFE70F98006805F0F0FBE6
:101F7000002801D1FFE7D2E20F98006805F0E8FBE6
:101F80008007002807D5FFE70F980068416901F036
:101F900002014161FFE70F98006805F0D9FB0003DB
:101FA000002871D5FFE7002009900F98006805F020
:101FB0007DFB0B90FFE70B98002864D0FFE79DF8AE
:101FC0002C00C007002857D0FFE70F9800689DF845
:101FD000241005F0A5FB0A909DF82800C0070028F2
:101FE0000CD0FFE70D98099900EB41100121C0F8D2
:101FF000081B0F98099902F071FAFFE79DF8280075
:10200000000700280CD5FFE70F98099902F036FA6F
:102010000D99099A01EB42110822C1F8082BFFE73C
:102020009DF82800C006002808D5FFE70D980999FB
:1020300000EB41101021C0F8081BFFE79DF82800B5
:102040008006002808D5FFE70D98099900EB41109C
:102050002021C0F8081BFFE79DF829008006002812
:1020600009D5FFE70D98099900EB41104FF4005195
:10207000C0F8081BFFE7FFE70998013009900B98AB
:1020800040080B9097E7FFE70F98006805F060FBAA
:102090004003002840F18780FFE70F98006805F0B3
:1020A000F3FA0B9000200990FFE70B98002879D0F5
:1020B000FFE79DF82C00C00700286CD0FFE70F98C1
:1020C00000689DF8241005F003FB0A909DF8280095
:1020D000C00700281BD0FFE7099800F00F0001217E
:1020E00001FA00F0089008980D9AD2F8343823EAE3
:1020F0000000C2F834080D98099A00EB4210C0F8AD
:1021000008190F989DF82410FFF7AEFCFFE79DF823
:1021100028000007002808D5FFE70D98099900EB73
:1021200041100821C0F80819FFE79DF82800C006F3
:10213000002808D5FFE70D98099900EB4110102100
:10214000C0F80819FFE79DF828004006002808D5C8
:10215000FFE70D98099900EB41104021C0F80819DC
:10216000FFE79DF828008007002808D5FFE70D98B5
:10217000099900EB41100221C0F80819FFE79DF80A
:1021800028000006002805D5FFE70F98099902F0FE
:10219000EDF9FFE7FFE70998013009900B98400837
:1021A0000B9082E7FFE70F98006805F0D1FAC00FA7
:1021B000002811D0FFE70D98D0F8041821F0010194
:1021C000C0F804180F9800F089FB0F980068416967
:1021D00001F000414161FFE70F98006805F0B8FA8F
:1021E0000005002812D5FFE70D98D0F80808C007B1
:1021F000002804D0FFE70F9800F0F0FBFFE70F98EE
:102200000068416901F400614161FFE70F980068CF
:1022100005F09EFAC00400287ED5FFE70D98D0F89F
:10222000041821F00101C0F804180F98006810216B
:1022300005F0DAF900210C91FFE70C980F99496835
:10224000884227D2FFE70D980C9900EB41104FF61A
:102250007F31C0F808190D980C9A00EB4210D0F8A5
:10226000002922F40012C0F800290D980C9A00EB06
:102270004210C0F8081B0D980C9900EB4110D0F8E3
:10228000001B21F40011C0F8001BFFE70C9801307F
:102290000C90D2E70D98D0F81C1841F00111C0F84D
:1022A0001C180F98006B00280FD0FFE70D98D0F88E
:1022B000841841F00B01C0F884180D98D0F8441828
:1022C00041F00B01C0F844180FE00D98D0F8141835
:1022D00042F22B021143C0F814180D98D0F81018D0
:1022E00041F00B01C0F81018FFE70D98D0F8001866
:1022F00021F4FE61C0F800180F98016800F57170B4
:1023000005900846059904F0FDFE0F9909684A6991
:1023100002F480524A61FFE70F98006805F018FA4E
:102320008004002825D5FFE70F98006804F08EFB95
:102330000F9909680490084605F080F90F99C86064
:102340000F980068039000F01FFE0F990A7B039915
:1023500002900846029905F091FA0F9901900846FB
:1023600000F09EFA0F980068416901F40051416144
:10237000FFE70F98006805F0EBF9C006002860D56C
:10238000FFE70F980068816921F0100181610E98C4
:10239000006A07900F98079901F00F01C1EBC10186
:1023A00000EB810000F5FE700690079800F4F01035
:1023B0000221B1EB504F22D1FFE7BDF81C0047F6D8
:1023C000F07108421AD0FFE70E980699C968079A7B
:1023D000C2F30A1205F0CAF9079947F6F0721140E4
:1023E000069BD3F80CC00CEB1111D9600799114072
:1023F000069A936903EB11119161FFE71AE00798C0
:1024000000F4F0100621B1EB504F11D1FFE70E9808
:102410000F9901F57171082205F0A8F9079947F69F
:10242000F0721140069A936903EB1111916100E07B
:10243000FFE7FFE70F980068816941F010018161B3
:10244000FFE70F98006805F083F9000700280AD518
:10245000FFE70F9800F04CFA0F980068416901F00F
:1024600008014161FFE70F98006805F071F9C002AB
:1024700000280ED5FFE7002009900F989DF8241042
:1024800000F050F80F980068416901F48011416133
:10249000FFE70F98006805F05BF9800200280ED571
:1024A000FFE7002009900F989DF8241000F04AF8EB
:1024B0000F980068416901F400114161FFE70F982E
:1024C000006805F045F9400000280AD5FFE70F989D
:1024D000FFF7C0FA0F980068416901F0804141613F
:1024E000FFE70F98006805F033F94007002815D57D
:1024F000FFE70F980068406807909DF81C004007B0
:10250000002804D5FFE70F98FFF7E4FAFFE70798E4
:102510000F9909684A6810434860FFE7FFE710B069
:1025200080BD000080B584B00A4603908DF80B1082
:102530000398D0F8FC039DF80B10019203F06AFC9D
:1025400004B080BD80B584B00A4603908DF80B10AE
:102550000398D0F8FC039DF80B10019203F062FC85
:1025600004B080BD2DE9F04F95B01390139800286A
:1025700004D1FFE701208DF8530045E1139800686E
:102580001290139890F8BD03002808D1FFE7139824
:10259000002180F8BC13139800F03CF9FFE7139872
:1025A000032180F8BD131298C06BC005002804D425
:1025B000FFE7139800210161FFE71398006804F01A
:1025C000CFFC13990A684B68D1F808C0D1F80CE029
:1025D0000C694D698E69CF69D1F82080D1F82490BB
:1025E000D1F828A0D1F82CB01090086B496B0F904F
:1025F000684641620F990162C0F81CB0C0F818A08B
:10260000C0F81490C0F81080C76086604560046010
:10261000104619466246734604F02EFA002808D088
:10262000FFE71398022180F8BD1301208DF85300B5
:10263000EAE01398006800210E9105F0BFF80E99AA
:102640008DF84710FFE79DF84700139949688842C5
:1026500045D2FFE713989DF84710C1EBC10100EB8D
:102660008100012180F83D109DF847001399C0EBCF
:10267000C00201EB820181F83C009DF847001399EC
:10268000C0EBC00201EB8201A1F8420013989DF853
:102690004710C1EBC10100EB8100002180F83F1021
:1026A00013989DF84720C2EBC20200EB8200416400
:1026B00013989DF84720C2EBC20200EB82008164B0
:1026C00013989DF84720C2EBC20200EB820001651F
:1026D000FFE79DF8470001308DF84700B3E7002081
:1026E0008DF84700FFE79DF8470013994968884235
:1026F0003ED2FFE713989DF84710C1EBC10100EBF4
:102700008100002180F8FD119DF84700139AC0EB6D
:10271000C00302EB830282F8FC0113989DF8472066
:10272000C2EBC20200EB820080F8FF1113989DF803
:102730004720C2EBC20200EB8200C0F804121398DB
:102740009DF84720C2EBC20200EB8200C0F80812DD
:1027500013989DF84720C2EBC20200EB8200C0F83C
:102760001012FFE79DF8470001308DF84700BAE7E7
:102770001398016842688368D0F80CC0D0F810E064
:1027800044698569C669076AD0F82480D0F8289022
:10279000D0F82CA0D0F830B0406B0D9068460C906B
:1027A0000D980B910C994862C1F820B0C1F81CA09B
:1027B000C1F81890C1F814800F61CE608D604C6034
:1027C000C1F800E00B9811461A46634604F08CFAF3
:1027D000002808D0FFE71398022180F8BD130120DC
:1027E0008DF8530010E01398002180F838101398EA
:1027F000012280F8BD23139800680A9104F062FA60
:102800000A998DF85310FFE79DF8530015B0BDE805
:10281000F08F000080B58AB00990002008900790E2
:102820000690059009980068B0F1A04F36D1FFE7F7
:10283000FFE741F21800C4F20200016841F0040110
:102840000160006800F0040004900498FFE74FF472
:102850000070059000200690079040F60000C4F23A
:10286000010005A9FEF700FEFFE741F21400C4F2E3
:102870000200016841F480510160006800F480505A
:1028800003900398FFE74320002102900191019AF1
:10289000FFF758F80298FFF749F8FFE70AB080BD44
:1028A00080B584B0039001208DF80B000398C068B8
:1028B000022803D0FFE7FEF737F8FFE70398D0F8C8
:1028C000FC039DF80B1003F081FB0399D1F8FC1376
:1028D0000190084603F006FB04B080BD80B582B0CD
:1028E00001900198D0F8FC0303F044FB02B080BDD6
:1028F00080B582B001900198D0F8FC0303F04CFB46
:1029000002B080BD80B584B00A4602908DF80710F1
:10291000FFE7029890F8BC03012804D1FFE70220EA
:102920008DF80F001AE00298012180F8BC13FFE730
:10293000FFE79DF80700029981F8380002980068C7
:102940009DF8071004F06CFFFFE70298002180F863
:10295000BC13FFE700208DF80F00FFE79DF80F0084
:1029600004B080BD80B582B001900198D0F8FC130E
:1029700000F5717000900846009903F053FB02B017
:1029800080BD000080B584B00290FFE7029890F807
:10299000BC03012804D1FFE702208DF80F0019E0E5
:1029A0000298012180F8BC13FFE7FFE70298006856
:1029B00004F076F9029909680190084604F0E4FDF4
:1029C000FFE70298002180F8BC13FFE700208DF894
:1029D0000F00FFE79DF80F0004B080BD80B582B006
:1029E00001900198D0F8FC0303F098FB0199096865
:1029F000D1F8002E42F00102C1F8002E0199096AB7
:102A0000002909D0FFE74EF61050CEF20000016811
:102A100041F006010160FFE702B080BD80B588B0DB
:102A20000690002005900490039006980078C00757
:102A3000002800F0AE80FFE700208DF80B0041F287
:102A40001C00C4F202000068C000002813D4FFE795
:102A5000FFE741F21C00C4F20200016841F080511E
:102A60000160006800F0805001900198FFE70120AC
:102A70008DF80B00FFE747F20000C4F20000006889
:102A8000C005002822D4FFE747F20000C4F200008E
:102A9000016841F480710160FEF7B0FE0590FFE728
:102AA00047F20000C4F200000068C00500280CD402
:102AB000FFE7FEF7A3FE0599401A652804D3FFE758
:102AC00003208DF81F002EE1EAE7FFE741F2200026
:102AD000C4F20200006800F44070049004980028DA
:102AE0003DD0FFE704980699496801F44071884297
:102AF00035D0FFE741F22000C4F20200016821F462
:102B00004071049140F24041C4F2422101220A6026
:102B100000220A60049901609DF81000C007002897
:102B20001CD0FFE7FEF76AFE0590FFE741F22000A8
:102B3000C4F202000068800700280ED4FFE7FEF709
:102B40005DFE0599401A41F28931884204D3FFE7BE
:102B500003208DF81F00E6E0E8E7FFE7FFE741F21A
:102B60002000C4F20200016821F44071069A526804
:102B7000114301609DF80B00012809D1FFE741F2E4
:102B80001C00C4F20200016821F080510160FFE7DF
:102B9000FFE706980078800700280CD5FFE741F290
:102BA0000400C4F20200016821F44041069A9268D0
:102BB00011430160FFE706980078400700280CD514
:102BC000FFE741F22C00C4F20200016821F4003159
:102BD000069AD26811430160FFE706980078000763
:102BE00000280CD5FFE741F22C00C4F20200016876
:102BF00021F48021069A126911430160FFE741F236
:102C00002C00C4F2020000688003002809D4FFE70A
:102C100041F22C00C4F2020000684003002803D5F2
:102C2000FFE701200390FFE70398012865D1FFE744
:102C300041F20000C4F202000068C00000284AD43B
:102C4000FFE741F20000C4F20200006840010028E2
:102C500010D5FFE741F22C00C4F20200006800F03A
:102C6000F00006998969884204D0FFE701208DF8B9
:102C70001F0058E041F22C00C4F20200016821F06C
:102C8000F001069A926911430160016821F47041D4
:102C9000069A5269114301607020C4F2422001215A
:102CA0000160FEF7ABFD0590FFE741F20000C4F2C2
:102CB00002000068800000280CD4FFE7FEF79EFDAC
:102CC0000599401A652804D3FFE703208DF81F00FB
:102CD00029E0EAE710E041F22C00C4F202000068AB
:102CE00000F4704006994969884204D0FFE701204A
:102CF0008DF81F0017E0FFE7FFE706980078C00691
:102D000000280CD5FFE741F20400C4F2020001687C
:102D100021F48001069AD26911430160FFE7002087
:102D20008DF81F00FFE79DF81F0008B080BD000070
:102D300080B584B0029001910298002804D1FFE789
:102D400001208DF80F001BE1019842F20001C4F24E
:102D50000201096801F00701884216D9FFE742F233
:102D60000000C4F20200016821F00701019A11433A
:102D70000160006800F007000199884204D0FFE775
:102D800001208DF80F00FBE0FFE702980078800734
:102D900000282AD5FFE7029800784007002809D5C7
:102DA000FFE741F20400C4F20200016841F4E0616F
:102DB0000160FFE7029800780007002809D5FFE7C7
:102DC00041F20400C4F20200016841F46051016064
:102DD000FFE741F20400C4F20200016821F0F001B3
:102DE000029A926811430160FFE702980078C007D9
:102DF000002860D0FFE70298406801280ED1FFE765
:102E000041F20000C4F2020000688003002804D4EC
:102E1000FFE701208DF80F00B2E021E00298406842
:102E200002280ED1FFE741F20000C4F20200006860
:102E30008001002804D4FFE701208DF80F009FE0F7
:102E40000DE041F20000C4F2020000688007002893
:102E500004D4FFE701208DF80F0091E0FFE7FFE7C2
:102E600041F20400C4F20200016821F00301029A59
:102E7000526811430160FEF7C1FC0090FFE741F288
:102E80000400C4F20200006800F00C0002994968D6
:102E9000B0EB810F0ED0FFE7FEF7B0FC0099401AAF
:102EA00041F28931884204D3FFE703208DF80F00F7
:102EB00066E0E4E7FFE7019842F20001C4F2020194
:102EC000096801F00701884216D2FFE742F20000CC
:102ED000C4F20200016821F00701019A1143016068
:102EE000006800F007000199884204D0FFE7012044
:102EF0008DF80F0044E0FFE70298007840070028B3
:102F00000CD5FFE741F20400C4F20200016821F48D
:102F1000E061029AD26811430160FFE702980078ED
:102F2000000700280DD5FFE741F20400C4F20200BB
:102F3000016821F46051029A126941EAC2010160FC
:102F4000FFE700F04BF841F20401C4F20201096806
:102F5000C9B2090948F6A652C0F60002515CC84041
:102F600040F22001C2F20001086040F27810C2F283
:102F700000000068FEF76EFC00218DF80F10FFE7DF
:102F80009DF80F0004B080BD40F22000C2F20000A6
:102F90000068704780B5FFF7F7FF41F20401C4F203
:102FA00002010968C1F3022148F6B652C0F60002D8
:102FB000515CC84080BD000080B5FFF7E5FF41F2DD
:102FC0000401C4F202010968C1F3C22148F6B652F5
:102FD000C0F60002515CC84080BD000080B590B0D2
:102FE0004FF45060ADF83C0000200E9040F20671A6
:102FF000C0F608110D910021C0F204510C9140F669
:103000000D61C1F20F010B9140F60921C0F60B4191
:103010000A9140F20561C0F60701099140F20121D1
:10302000C0F2034108910790069005900490039028
:103030000290019041F20400C4F20200006807907F
:10304000079800F00C000146002800916FD0FFE7C0
:103050000098042804D0FFE70098082806D067E00D
:1030600047F64000C0F27D10039067E00798C0F378
:1030700083400CA9085C04909DF81E00C00700283E
:103080004AD0FFE741F22C00C4F20200016801F0CF
:103090000F0108AA515C06910068C003002825D5DD
:1030A000FFE741F22C00C4F202000168C9B201221C
:1030B00002EB11110291006800F47060022101EB33
:1030C0001020019001980499A0FB010147F64002ED
:1030D000C0F27D12A0FB020301FB0231029A069BA3
:1030E000A2FB0323FDF750F805900AE0049847F689
:1030F0004001C0F27D1148430699B0FBF1F0059004
:10310000FFE704989DF83D10884204D1FFE7059839
:1031100040080590FFE707E0049840F60011C0F270
:103120003D0148430590FFE70598039006E0FFE75F
:1031300041F20020C0F27A000390FFE7039810B03C
:1031400080BD000080B586B004900498002804D1AA
:10315000FFE701208DF81700F6E304980078C00718
:10316000002800F0B180FFE741F20400C4F2020041
:10317000006800F00C00042813D0FFE741F20400BF
:10318000C4F20200006800F00C0008281CD1FFE720
:1031900041F20400C4F202000068C003002813D505
:1031A000FFE741F20000C4F202000068800300283B
:1031B00009D5FFE704988068002804D1FFE70120C3
:1031C0008DF81700C0E37EE0FFE704988068B0F553
:1031D000803F09D1FFE741F20000C4F2020001681C
:1031E00041F48031016033E00498806800280DD1FB
:1031F000FFE741F20000C4F20200016821F48031CF
:103200000160016821F48021016020E00498806859
:10321000B0F5A02F0DD1FFE741F20000C4F202008B
:10322000016841F480210160016841F4803101604E
:103230000CE041F20000C4F20200016821F4803188
:103240000160016821F480210160FFE7FFE7FFE7EB
:10325000FFE70498806800281AD0FFE7FEF7CEFA4F
:103260000390FFE741F20000C4F20200006880030F
:1032700000280CD4FFE7FEF7C1FA0399401A65282D
:1032800004D3FFE703208DF817005DE3EAE719E0B8
:10329000FEF7B4FA0390FFE741F20000C4F2020027
:1032A0000068800300280CD5FFE7FEF7A7FA039912
:1032B000401A652804D3FFE703208DF8170043E385
:1032C000EAE7FFE7FFE7FFE70498007880070028B8
:1032D00040F18E80FFE741F20400C4F20200006872
:1032E00010F00C0F13D0FFE741F20400C4F202000B
:1032F000006800F00C00082829D1FFE741F2040023
:10330000C4F202000068C003002820D4FFE741F2A5
:103310000000C4F2020000688007002809D5FFE71A
:1033200004984069012804D0FFE701208DF81700B8
:103330000AE341F20000C4F20200016821F0F80142
:10334000049A926941EAC2010160FFE74FE00498E4
:10335000406900282BD0FFE70020C4F24220012161
:103360000160FEF74BFA0390FFE741F20000C4F260
:1033700002000068800700280CD4FFE7FEF73EFA41
:103380000399401A032804D3FFE703208DF81700A0
:10339000DAE2EAE741F20000C4F20200016821F03B
:1033A000F801049A926941EAC20101601EE000201E
:1033B000C4F2422000210160FEF720FA0390FFE7EB
:1033C00041F20000C4F202000068800700280CD51A
:1033D000FFE7FEF713FA0399401A032804D3FFE727
:1033E00003208DF81700AFE2EAE7FFE7FFE7FFE70A
:1033F000049800780007002849D5FFE70498C069C1
:10340000002823D0FFE740F28040C4F2422001218F
:103410000160FEF7F3F90390FFE741F22400C4F2E4
:1034200002000068800700280CD4FFE7FEF7E6F9E9
:103430000399401A032804D3FFE703208DF81700EF
:1034400082E2EAE7012001F029F91FE040F2804022
:10345000C4F2422000210160FEF7D0F90390FFE79B
:1034600041F22400C4F202000068800700280CD555
:10347000FFE7FEF7C3F90399401A032804D3FFE7D7
:1034800003208DF817005FE2EAE7FFE7FFE7049803
:1034900000784007002840F1DA80FFE700208DF82F
:1034A000070041F21C00C4F202000068C0000028BE
:1034B00013D4FFE7FFE741F21C00C4F202000168E9
:1034C00041F080510160006800F080500090009849
:1034D000FFE701208DF80700FFE747F20000C4F284
:1034E00000000068C005002822D4FFE747F2000072
:1034F000C4F20000016841F480710160FEF77EF9BA
:103500000390FFE747F20000C4F200000068C00526
:1035100000280CD4FFE7FEF771F90399401A6528DB
:1035200004D3FFE703208DF817000DE2EAE7FFE779
:10353000FFE704980069012809D1FFE741F2200064
:10354000C4F20200016841F00101016032E0049818
:10355000006900280DD1FFE741F22000C4F202000B
:10356000016821F001010160016821F0040101609E
:103570001FE00498006905280DD1FFE741F2200003
:10358000C4F20200016841F004010160016841F0E9
:10359000010101600CE041F22000C4F20200016868
:1035A00021F001010160016821F004010160FFE7E1
:1035B000FFE7FFE7FFE70498006900281CD0FFE75A
:1035C000FEF71CF90390FFE741F22000C4F202006D
:1035D0000068800700280ED4FFE7FEF70FF9039973
:1035E000401A41F28931884204D3FFE703208DF865
:1035F0001700A9E1E8E71BE0FEF700F90390FFE7F9
:1036000041F22000C4F202000068800700280ED5B5
:10361000FFE7FEF7F3F80399401A41F28931884237
:1036200004D3FFE703208DF817008DE1E8E7FFE7FB
:103630009DF80700012809D1FFE741F21C00C4F200
:103640000200016821F080510160FFE7FFE7049864
:10365000C06A002800F0B780FFE741F20400C4F21E
:1036600002000068C003002817D5FFE741F20400FC
:10367000C4F20200006800F00C0008280DD1FFE73A
:1036800041F22C00C4F202000068C003002804D5F7
:10369000FFE701208DF8170056E10498C06A022860
:1036A00068D1FFE741F20000C4F202000068C000E8
:1036B000002810D5FFE741F22C00C4F20200006898
:1036C00000F0F0000499496B884204D0FFE7012024
:1036D0008DF8170038E16820C4F242200021016013
:1036E000FEF78CF80390FFE741F20000C4F20200FD
:1036F0000068000100280CD5FFE7FEF77FF803996A
:10370000401A652804D3FFE703208DF817001BE15A
:10371000EAE741F22C00C4F20200016821F0F00156
:10372000049A526B11430160016821F47061049A9C
:10373000126B114301606820C4F242200121016034
:10374000FEF75CF80390FFE741F20000C4F20200CC
:103750000068000100280CD4FFE7FEF74FF803993A
:10376000401A652804D3FFE703208DF81700EBE02B
:10377000EAE726E041F22C00C4F20200016821F4DD
:10378000803101606820C4F2422000210160FEF710
:1037900035F80390FFE741F20000C4F20200006830
:1037A000000100280CD5FFE7FEF728F80399401A1E
:1037B000652804D3FFE703208DF81700C4E0EAE78B
:1037C000FFE7FFE7FFE70498006A002800F0B880F1
:1037D000FFE741F20400C4F20200006800F00C00B0
:1037E000082800F08780FFE70498006A022861D16A
:1037F000FFE76020C4F2422000210160FDF7FEFFD8
:103800000390FFE741F20000C4F20200006880016B
:1038100000280CD5FFE7FDF7F1FF0399401A0328B4
:1038200004D3FFE703208DF817008DE0EAE7049842
:10383000406AB0F5803F11D1FFE70498406841F23B
:103840002C01C4F202010A6810430860086820F0E5
:103850000F00049AD26810430860FFE741F20400A9
:10386000C4F20200016821F47411049A536A926A46
:103870001A43114301606020C4F24220012101601B
:10388000FDF7BCFF0390FFE741F20000C4F2020025
:103890000068800100280CD4FFE7FDF7AFFF039913
:1038A000401A032804D3FFE703208DF817004BE0EC
:1038B000EAE71EE06020C4F2422000210160FDF72B
:1038C0009DFF0390FFE741F20000C4F20200006890
:1038D000800100280CD5FFE7FDF790FF0399401AFF
:1038E000032804D3FFE703208DF817002CE0EAE754
:1038F000FFE724E00498006A012804D1FFE70120D3
:103900008DF8170020E041F20400C4F202000068C4
:103910000290029800F480300499496A884208D1E4
:10392000FFE7029800F470100499896A884204D075
:10393000FFE701208DF8170006E0FFE7FFE7FFE74C
:1039400000208DF81700FFE79DF8170006B080BD36
:1039500080B582B00190019800F0C0FE02B080BD39
:1039600081B0009001B0704781B0009001B0704705
:1039700085B003900291FFE7039890F83C0001287E
:1039800004D1FFE702208DF8130039E003980121EC
:1039900080F83C10FFE7FFE70398022180F83D1014
:1039A0000398006840680190039800688068009060
:1039B000019820F070000190029800680199084376
:1039C0000190009820F080000090029840680099D3
:1039D000084300900198039909684860009803998A
:1039E000096888600398012180F83D10FFE703987B
:1039F000002180F83C10FFE700208DF81300FFE75E
:103A00009DF8130005B0704780B584B0029002980D
:103A1000002804D1FFE701208DF80F0021E0029873
:103A200090F83D00002808D1FFE70298002180F8B7
:103A30003C10029800F01AF8FFE70298022180F883
:103A40003D10029850F8041B01900846019900F0BF
:103A50001DFF0298012180F83D1000208DF80F0015
:103A6000FFE79DF80F0004B080BD000080B588B06E
:103A700007900798006841F20001C4F200018842F3
:103A80001AD1FFE7FFE741F21C00C4F2020001680F
:103A900041F010010160006800F0100006900698E7
:103AA000FFE73620002104900391039AFDF74AFFB7
:103AB0000498FDF73BFF23E00798006841F20041BE
:103AC000C4F2000188421AD1FFE7FFE741F21C006F
:103AD000C4F20200016841F020010160006800F0BA
:103AE000200005900598FFE7372000210290019102
:103AF000019AFDF727FF0298FDF718FFFFE7FFE7A0
:103B000008B080BD82B0019001980068C16841F0A2
:103B10000101C16001980068806800F00700009012
:103B20000098062807D0FFE701980068016841F077
:103B300001010160FFE7002002B0704781B00090F2
:103B400001B0704780B582B00190019800680069AB
:103B500000F002000021B1EB500F29D0FFE70198DF
:103B60000068C06800F002000021B1EB500F1ED0C9
:103B7000FFE7019800686FF00201016101980121DF
:103B800001770198006880698007002804D0FFE76A
:103B90000198FFF7D3FF06E0019800F015F90198AE
:103BA00000F016F9FFE7019800210177FFE7FFE732
:103BB00001980068006900F004000021B1EB900F4B
:103BC00029D0FFE701980068C06800F004000021D8
:103BD000B1EB900F1ED0FFE7019800686FF0040171
:103BE000016101980221017701980068806910F451
:103BF000407F04D0FFE70198FFF7A0FF06E001989F
:103C000000F0E2F8019800F0E3F8FFE701980021E6
:103C10000177FFE7FFE701980068006900F00800FE
:103C20000021B1EBD00F29D0FFE701980068C068F0
:103C300000F008000021B1EBD00F1ED0FFE7019883
:103C400000686FF008010161019804210177019873
:103C50000068C0698007002804D0FFE70198FFF7DB
:103C60006DFF06E0019800F0AFF8019800F0B0F8A1
:103C7000FFE7019800210177FFE7FFE7019800685F
:103C8000006900F010000021B1EB101F29D0FFE700
:103C900001980068C06800F010000021B1EB101F0F
:103CA0001ED0FFE7019800686FF0100101610198D4
:103CB0000821017701980068C06910F4407F04D0A2
:103CC000FFE70198FFF73AFF06E0019800F07CF863
:103CD000019800F07DF8FFE7019800210177FFE7E8
:103CE000FFE7019800680069C007002811D0FFE7CE
:103CF00001980068C068C007002809D0FFE7019854
:103D000000686FF001010161019800F065F8FFE7BC
:103D1000FFE7019800680069C0B20021B1EBD01F35
:103D200013D0FFE701980068C068C0B20021B1EB72
:103D3000D01F09D0FFE7019800686FF08001016192
:103D40000198FFF70DFEFFE7FFE7019800680069A3
:103D500000F040000021B1EB901F14D0FFE7019864
:103D60000068C06800F040000021B1EB901F09D04E
:103D7000FFE7019800686FF040010161019800F0D1
:103D80005DF8FFE7FFE701980068006900F0200098
:103D90000021B1EB501F14D0FFE701980068C06804
:103DA00000F020000021B1EB501F09D0FFE701987F
:103DB00000686FF0200101610198FFF7D5FDFFE772
:103DC000FFE702B080BD000081B0009001B07047F5
:103DD00081B0009001B0704781B0009000980068F9
:103DE00041F20041C4F2000188421AD1FFE740F2DB
:103DF0008010C2F2000001780131017000781428AF
:103E00000EDBFFE741F6F010C2F20000016801315D
:103E1000016040F28010C2F2000000210170FFE753
:103E2000FFE70098006841F20001C4F200018842F7
:103E300001D1FFE7FFE701B07047000081B00090BB
:103E400001B0704780B582B000900098002804D17E
:103E5000FFE701208DF8070040E000988069002806
:103E600001D0FFE700E0FFE7009890F83900002854
:103E700008D1FFE70098002180F83810009800F082
:103E800031F8FFE70098242180F839100098006885
:103E9000C16821F40051C160009800F07FFD0098D6
:103EA0000068016921F4904101610098006841694E
:103EB00021F02A01416100980068C16841F4005175
:103EC000C16000980021C1630098202280F8392049
:103ED000009880F83A208DF80710FFE79DF807005A
:103EE00002B080BD80B58AB009900020089007908C
:103EF000069005900998006844F20041C4F2000160
:103F0000884248D1FFE7FFE741F21C00C4F20200FB
:103F1000016841F400310160006800F40030049051
:103F20000498FFE7FFE741F21800C4F202000168BD
:103F300041F020010160006800F020000390039828
:103F4000FFE720200590022006900320089041F210
:103F50000040C4F2010005A901900091FDF784FA28
:103F60004020059000200690079001980099FDF7E9
:103F70007BFAFFE70420C4F2010001680291029974
:103F800041F0E0610291029941F008010291029929
:103F90000160FFE7FFE70AB080BD0000FFE7FEE732
:103FA00080B541F6C010C2F20000103003F0F8FDF9
:103FB00080BD000080B541F6C010C2F200000C3098
:103FC00003F0EEFD80BD000080B541F6C010C2F2E6
:103FD0000000083003F0E4FD80BD000083B013460C
:103FE000029001918DF8032000208DF80200FFE778
:103FF0009DF802009DF80310884229DAFFE7029835
:10400000000F092809D8FFE70298000F3030019906
:104010009DF8022001F8120009E00298372101EB17
:10402000107001999DF8022001F81200FFE7029834
:104030000001029001989DF8021000EB4100002160
:104040004170FFE79DF8020001308DF80200CFE7D4
:1040500003B0704710B585B004900391049803999C
:1040600050E8002F940103D3BFF32F8F002206E006
:1040700002F000420A4340E8002303B1F0E7029255
:1040800001930094029805B010BD000080B584B083
:10409000002003900290019041F24801C2F2000119
:1040A00042F20042C4F201020A6088600873087597
:1040B0004FF46022CA614860012008610846FDF79C
:1040C00065F8002803D0FFE7FCF72EFCFFE7082087
:1040D0000190012002900020039041F24800C2F2BA
:1040E000000001A9FCF774FF002803D0FFE7FCF7EC
:1040F0001BFCFFE704B080BD80B58EB000200D90A2
:104100000C900B900A90FFE741F21800C4F20200F5
:10411000016841F040010160006800F04000099032
:104120000998FFE7FFE741F21800C4F202000168B6
:1041300041F010010160006800F01000089008983C
:10414000FFE7FFE741F21800C4F20200016841F006
:1041500004010160006800F0040007900798FFE781
:10416000FFE741F21800C4F20200016841F00801C3
:104170000160006800F0080006900698FFE7FFE77E
:1041800041F21800C4F20200016841F02001016010
:10419000006800F0200005900598FFE741F6000058
:1041A000C4F201004FF46041012204900392FDF734
:1041B0000BFB40F2FF300A9003200B900AA9049AEF
:1041C000029010460191FDF74FF943F6FF700A90F7
:1041D00002980B9041F20000C4F201000199FDF732
:1041E00043F948F2FF500A9002980B9040F6000005
:1041F000C4F201000199FDF737F94FF6FE700A90FD
:1042000002980B9040F60040C4F201000199FDF7BE
:104210002BF94FF4E0500A9000200B900C9004987A
:104220000199FDF721F94FF4C0400A9003980B90D3
:104230000C9002990D9104980199FDF715F94FF42E
:1042400000400A9003980B900C9002210D91049865
:104250000199FDF709F94FF69F700A9002980B90AB
:1042600041F20040C4F201000199FDF7FDF80EB0E3
:1042700080BD000080B582B000200190009041F226
:104280007841C2F2000141F20002C4F200020A6069
:1042900048224A6088606420C8608020886108469F
:1042A000FFF7B2FB002803D0FFE7FCF73DFBFFE779
:1042B00000200090019041F27840C2F2000069466F
:1042C000FFF756FB002803D0FFE7FCF72DFBFFE7C5
:1042D00002B080BD80B582B000200190009041F214
:1042E000B841C2F2000141F20042C4F200020A6089
:1042F00048224A6088604FF47A70C86080208861E4
:104300000846FFF781FB002803D0FFE7FCF70CFB12
:10431000FFE700200090019041F2B840C2F2000097
:104320006946FFF725FB002803D0FFE7FCF7FCFAFE
:10433000FFE702B080BD000080B541F2F840C2F254
:10434000000044F20041C4F2000101604FF4E13189
:10435000416000218160C16001610C224261816184
:10436000C161FFF76FFD002803D0FFE7FCF7DCFA1F
:10437000FFE780BD80B540F68450C2F2000040F2F5
:104380000401C2F20001002201F0E8FA002803D083
:10439000FFE7FCF7C9FAFFE740F68450C2F20000DD
:1043A00040F22401C2F2000101F012FF002803D004
:1043B000FFE7FCF7B9FAFFE740F68450C2F20000CD
:1043C00040F24811C2F2000100F054FD002803D071
:1043D000FFE7FCF7A9FAFFE740F68450C2F20000BD
:1043E00002F044F8002803D0FFE7FCF79DFAFFE74E
:1043F00080BD0000FFE7FEE77047000088B007902F
:1044000006910592079800F0070004900498C0F107
:104410000700052803D3FFE70420019004E0049877
:10442000C0F107000190FFE7019803900498043061
:10443000062803D8FFE70020009003E00498033823
:104440000090FFE70098029006980399012202FA73
:1044500001F10139084002998840059B02FA01F1F7
:1044600001391940084308B07047000080B541F297
:104470007800C2F20000FDF767FD80BD80B586B010
:1044800005900491059800680390039802900398A2
:10449000006C01900298049900EB4110D0F8080BD1
:1044A0000090019843F20A11C4F6547188420FD16A
:1044B000FFE79DF801000006002809D5FFE70298F4
:1044C000049900EB41104FF40041C0F8081BFFE7CE
:1044D0000598FEF747FA002006B080BD80B586B08B
:1044E0000590049105980068039003980290039842
:1044F000006C01900298049900EB4110D0F8080B71
:104500000090019843F20A11C4F65471884224D1F4
:10451000FFE79DF801000006002809D5FFE7029893
:10452000049900EB41104FF40041C0F8081B13E060
:104530009DF800008006002808D5FFE7029804993E
:1045400000EB41102021C0F8081BFFE705989DF8FB
:104550001010FDF7A3FAFFE705E005989DF810108D
:10456000FDF79CFAFFE7002006B080BD80B58AB059
:10457000089007910898006806900698059008989A
:104580000799C1EBC10100EB81003C300490049815
:1045900041698069884204D9FFE701208DF827002E
:1045A00075E0049841698069081A0390039804999A
:1045B0008968884204D9FFE7049880680390FFE780
:1045C0000398033080080290FFE70598079900EBF5
:1045D0004110D0F8180980B2029900228842009256
:1045E0000FD3FFE704984169806900228842009256
:1045F00007D2FFE704984069002818BF0120009007
:10460000FFE70098C007002827D0FFE7049841691A
:104610008069081A0390039804998968884204D92C
:10462000FFE7049880680390FFE703980330800851
:10463000029006980499C9689DF81C20BDF80C30BA
:1046400003F0F2F90399049AD3681944D1600399ED
:10465000049A936919449161B7E7049841698069A4
:10466000814210D8FFE7079800F00F00012101FAFE
:1046700000F0019001980599D1F8342822EA000051
:10468000C1F83408FFE700208DF82700FFE79DF808
:1046900027000AB080BD00007047000082B0019082
:1046A000019840F22001C2F200010968C90844F6ED
:1046B000D352C1F26202A1FB021292095043009050
:1046C000FFE700BFFFE70098411E00910028F8D1E6
:1046D000FFE702B0704700007047000080B582B06D
:1046E000009000980138B0F1807F03D3FFE70120EC
:1046F000019019E0009801384EF21401CEF2000149
:1047000008604FF0FF300F2103F00AFA4EF2180054
:10471000CEF20000002101604EF21000CEF2000047
:10472000072202600191FFE7019802B080BD0000FE
:1047300080B5FDF769F880BD80B59EB010A838211E
:104740000290FBF76BFD00200F900E900D900C90E7
:104750000B900A900990089007900690059004909D
:104760000390012010904FF4803112910422139293
:10477000159011910220189019914FF4E0111A919F
:104780001B904FF4C0601C9040201D900298FEF7D3
:10479000D9FC002803D0FFE7FCF7C6F8FFE70F209D
:1047A0000B9002200C9000210D914FF480620E922C
:1047B0000F910BA9019008460199FEF7B9FA00285C
:1047C00003D0FFE7FCF7B0F8FFE7122003904FF4A7
:1047D0000040059000200A9003A8FEF71FF900286A
:1047E00003D0FFE7FCF7A0F8FFE77020C4F24220F7
:1047F000012101601EB080BD41F20000C4F2020040
:10480000016841F00101016041F20401C4F20201BA
:104810000A680023CFF2FF031A400A6002684FF6CD
:10482000FF73CFF6F6631A400260026822F480221A
:1048300002600A6822F4FE020A60016821F0A051B9
:10484000016041F20800C4F202004FF47F010160F0
:1048500041F22C00C4F20200002101604EF6085023
:10486000CEF200004FF000610160704780B541F268
:104870007840C2F20000FFF765F980BD80B541F2D3
:10488000B840C2F20000FFF75DF980BD83B002902E
:104890000191029800680090029842F60041C4F22B
:1048A000010188421DD0FFE70298B0F1804F18D077
:1048B000FFE7029840F20041C4F20001884210D0A4
:1048C000FFE7029840F60001C4F20001884208D0D8
:1048D000FFE7029840F60041C4F2000188420AD185
:1048E000FFE7009820F07000009001984068009960
:1048F00008430090FFE7029842F60041C4F201012C
:1049000088421DD0FFE70298B0F1804F18D0FFE732
:10491000029840F20041C4F20001884210D0FFE743
:10492000029840F60001C4F20001884208D0FFE777
:10493000029840F60041C4F2000188420AD1FFE724
:10494000009820F4407000900198C06800990843D6
:104950000090FFE7009820F0800001994969084322
:104960000090009802990860019880680299C862D6
:104970000198006802998862029842F60041C4F2E8
:104980000101884205D1FFE7019800690299086397
:10499000FFE702980121416103B0704780B584B000
:1049A000039003980068006920F4405003990A6856
:1049B000C96808431061039881680269406911431E
:1049C0000843029003980068C06841F20C61884374
:1049D0000299084303990968C86003980068406910
:1049E00020F4407003990A6889690843506103986C
:1049F000006843F60001C4F20101884229D1FFE7B3
:104A0000FEF7DAFA019001981921484303990A68E0
:104A100049688900B0FBF1F048F21F51C5F2EB1173
:104A2000A0FB013C4FEA5C1C4FF0640E0CFB1E0027
:104A30004FF0320E0EEB0010A0FB01014FF0F00E14
:104A40000EEA511E0EEB0C1CC1F343116144916040
:104A500028E0FEF79FFA0190019819214843039935
:104A60000A6849688900B0FBF1F048F21F51C5F2AD
:104A7000EB11A0FB013C4FEA5C1C4FF0640E0CFBF9
:104A80001E004FF0320E0EEB0010A0FB01014FF0A4
:104A9000F00E0EEA511E0EEB0C1CC1F343116144E3
:104AA0009160FFE704B080BD80B586B00A460490EF
:104AB0008DF80F100498D0F8B80202900498D0F83E
:104AC000C00201900498D0F8B80200283CD0FFE75B
:104AD00004989DF80F1001EB810100EB8100C06983
:104AE000002828D0FFE704989DF80F1001EB810201
:104AF00000EB8200C069019AC1EBC10102EB8101A8
:104B0000496CB0FBF1F202FB1100002813D1FFE762
:104B100004989DF80F1001EB810100EB810000214A
:104B2000C16104989DF80F2000911146009A009BE6
:104B300001F002FB04E002980021C0F81412FFE724
:104B400000208DF8170003E002208DF81700FFE722
:104B50009DF8170006B080BD80B586B00A46049067
:104B60008DF80F100498D0F8B802029004989DF8C0
:104B70000F10019201F0CCF80299C1F80C020498D0
:104B8000D0F8B802002811D0FFE70498D0F8BC0292
:104B9000C0680299D1F8042201F503710090104613
:104BA000009A904700218DF8171003E002208DF83D
:104BB0001700FFE79DF8170006B080BD80B588B0EC
:104BC0000A4607908DF81B1000208DF81A000799EF
:104BD0008123059008461946049200F015FF0799B5
:104BE000059ACA620799012303900846194600F006
:104BF0000BFF0799059AC1F86C210799822302904F
:104C00000846194600F000FF0799059A0A640799BB
:104C1000D1F8B812002911D0FFE70798D0F8BC02EC
:104C2000406880470799D1F8B8120190084601F012
:104C300091FE07980021C0F8B812FFE79DF81A000E
:104C400008B080BD80B584B003900398D0F8B80256
:104C500002900398D0F8BC02002819D0FFE7029810
:104C600090F80002FF2813D0FFE70398D0F8BC02A9
:104C70008068029991F8002291F801320190104663
:104C80001A46019B98470299FF2281F80022FFE70C
:104C9000002004B080BD000081B0009000980A217F
:104CA000018040F2E400C2F2000001B07047000051
:104CB00081B0009000984321018040F25C00C2F274
:104CC000000001B07047000081B0009000984321BF
:104CD000018040F2A000C2F2000001B07047000065
:104CE00081B0009000984321018040F2F000C2F2B0
:104CF000000001B07047000080B58CB00A460B90F0
:104D00008DF82B1000208DF82A000B98007C0028CD
:104D10001BD1FFE70B98812102224FF40073089208
:104D2000079301F087F80B990122CA620B9906904C
:104D300008461146089B05921A46079B01F07AF82F
:104D40000B99059AC1F86C2119E00B988121022278
:104D500040230492039301F06DF80B990122CA627B
:104D60000B99029008461146049B01921A46039B38
:104D700001F060F80B99019AC1F86C21FFE70B98DC
:104D800082210322082301F055F80B9901220A64BD
:104D90004FF407710090084601F0E0FD0B99C1F84F
:104DA000B8020B98D0F8B802002804D1FFE7012020
:104DB0008DF82A0028E00B98D0F8B80209900B98DB
:104DC000D0F8BC020068804709990022C1F814227B
:104DD0000999C1F818220B99097C00290AD1FFE72B
:104DE0000B980999D1F8042201214FF4007301F0C6
:104DF0004FF808E00B980999D1F8042201214023CB
:104E000001F046F8FFE7FFE79DF82A000CB080BDEF
:104E100080B584B002900298D0F8B8020190029850
:104E2000D0F8B80200281CD0FFE70298007C0028C8
:104E30000AD1FFE702980199D1F8042201214FF429
:104E4000007301F025F808E002980199D1F80422D6
:104E50000121402301F01CF8FFE700208DF80F002E
:104E600003E002208DF80F00FFE79DF80F0004B06B
:104E700080BD000083B00290019102208DF80300F4
:104E80000198002808D0FFE701980299C1F8BC02F8
:104E900000208DF80300FFE79DF8030003B0704782
:104EA00083B0029001910298D0F8B8020090019866
:104EB0000099C1F80402002003B0704784B0134683
:104EC00003900291ADF806200398D0F8B802009044
:104ED00002980099C1F80802BDF806000099C1F8CF
:104EE0001002002004B0704780B58CB00B900A917E
:104EF0000B98D0F8B802099000208DF82300ADF887
:104F000020008DF81F000A98007800F0600001462C
:104F1000002806914AD0FFE70698202840F09880A4
:104F2000FFE70A98C088002832D0FFE70A98007887
:104F3000000600281AD5FFE70B98D0F8BC0280685D
:104F40000A994A78099BC988059010460491194628
:104F5000049A059B98470B99099A0A9BDB88039052
:104F6000084611461A4600F073F910E00A98407896
:104F7000099981F800020A988079099981F801025B
:104F80000B9809990A9AD28800F024F9FFE70CE0FF
:104F90000B98D0F8BC0280680A994A7800230290E6
:104FA00010461A46029B9847FFE759E00A98407856
:104FB00001460028019108D0FFE701980A2819D07E
:104FC000FFE701980B282BD039E00B9890F89C0252
:104FD000032806D1FFE70B9808A9022200F038F950
:104FE00007E00B980A9900F0E3F802208DF81F0003
:104FF000FFE72CE00B9890F89C02032807D1FFE70D
:105000000B980DF12301012200F022F907E00B9823
:105010000A9900F0CDF802208DF81F00FFE716E096
:105020000B9890F89C02032808D0FFE70B980A9988
:1050300000F0BEF802208DF81F00FFE707E00B9894
:105040000A9900F0B5F802208DF81F00FFE707E08D
:105050000B980A9900F0ACF802208DF81F00FFE7CA
:105060009DF81F000CB080BD80B584B002900298FE
:10507000D0F8B80201900298D0F8B802002820D0E9
:10508000FFE70198D0F81402002816D1FFE7019835
:105090000121C0F814120198D0F810020299086397
:1050A00002980199D1F80822B1F81032812101F05B
:1050B00043F800218DF80F1007E001208DF80F0054
:1050C00003E002208DF80F00FFE79DF80F0004B009
:1050D00080BD000080B586B00A4605908DF813109B
:1050E0000598D0F8B41249689DF813300391194619
:1050F000039B0292984700210190084606B080BDAC
:1051000080B582B001900091019890F89C0201381E
:1051100002280ED8FFE700984088012808D1FFE751
:1051200001980021C0F8A412019800F0B9F8FFE737
:1051300004E00198009900F03BF8FFE702B080BD61
:1051400080B588B0134607900691ADF816200798F1
:10515000069ABDF816104FF0000C04916146DDF878
:1051600010E003937346CDF808C000F091FE029959
:105170000190084608B080BD80B588B013460790FE
:105180000691ADF816200798069ABDF816104FF054
:10519000000C04916146DDF810E003937346CDF8EE
:1051A00008C000F0C9FF02990190084608B080BD10
:1051B00080B584B0039002910398802100F074FFC1
:1051C0000399002201900846114600F06DFF04B0DB
:1051D00080BD000080B588B0134607900691ADF8F9
:1051E000162007980321C0F89412BDF816000799FD
:1051F000C1F85C01BDF816000799C1F86001079875
:10520000069ABDF816104FF0000C04916146DDF8C7
:1052100010E003937346CDF808C000F039FE029900
:105220000190084608B080BD80B584B00390039813
:105230000521C0F89412039800210291029A029B62
:1052400000F026FE02990190084604B080BD0000DF
:1052500080B588B0134607900691ADF816200798E0
:105260000221C0F89412BDF816000799C861BDF874
:105270001600079908620798069ABDF816104FF0B5
:10528000000C04916146DDF810E003937346CDF8FD
:1052900008C000F051FF02990190084608B080BD97
:1052A00080B584B0039003980421C0F89412039849
:1052B00000210291029A029B00F03EFF02990190A8
:1052C000084604B080BD000080B582B002468DF86B
:1052D000070000919DF8070000280CD1FFE7009A15
:1052E00048F63070C0F6000040F28411C2F20001AE
:1052F00000F0C8FA0BE0009A48F63070C0F60000E3
:1053000040F28411C2F2000100F0BCFAFFE740F263
:105310008410C2F2000002B080BD000082B00246DC
:105320008DF80700009100981221018040F234109E
:10533000C2F2000002B0704780B582B002468DF81C
:10534000070000919DF8070000280CD1FFE7009AA4
:1053500048F62270C0F6000040F28411C2F200014B
:1053600000F090FA0BE0009A48F62270C0F60000B8
:1053700040F28411C2F2000100F084FAFFE740F22B
:105380008410C2F2000002B080BD000082B002466C
:105390008DF80700009100980421018040F2581018
:1053A000C2F2000002B0704780B586B002468DF8A8
:1053B00017000491049848F63B71C0F6000140F2D2
:1053C0008413C2F20003039008461946DDF80CC0AE
:1053D00002926246019300F055FA019806B080BD32
:1053E00080B582B002468DF8070000919DF8070055
:1053F00000280CD1FFE7009A48F64E70C0F6000076
:1054000040F28411C2F2000100F03CFA0BE0009A75
:1054100048F64E70C0F6000040F28411C2F200015E
:1054200000F030FAFFE740F28410C2F2000002B050
:1054300080BD000080B584B002468DF80F00029157
:1054400002981A2101800192FBF790FD40F25C1056
:10545000C2F2000004B080BD80B584B00390029118
:105460000298C088012805D0FFE703980299FFF74A
:105470009FFE21E0039890F89C02411E02290190B2
:1054800004D3FFE7019803280AD00FE00398002116
:105490008160039800F108010122FFF7D9FE0AE0BC
:1054A0000398011D0122FFF7D3FE04E0039802993F
:1054B000FFF77EFEFFE7FFE704B080BD80B594B044
:1054C000139012910020ADF8460010908DF83F0027
:1054D0001298C0780138014606280E9100F24881E2
:1054E0000E99DFE811F0070014003800450145016E
:1054F0000A0126011398D0F8B0120968007C0DF15A
:1055000046020D9111460D9A904710903AE113987A
:10551000007C00280FD1FFE71398D0F8B402806A0E
:105520000DF146010C9008460C9988471090109890
:10553000022141700EE01398D0F8B402C06A0DF158
:1055400046010B9008460B9988471090109802214D
:105550004170FFE716E112988078014605280A910C
:1055600000F2C0800A99DFE801F0032241607F9ECB
:105570001398D0F8B002406800280DD0FFE71398C8
:10558000D0F8B0124968007C0DF14602099111462D
:10559000099A9047109009E013981299FFF708FEB6
:1055A0009DF83F0001308DF83F00FFE7A4E013981D
:1055B000D0F8B002806800280DD0FFE71398D0F82B
:1055C000B0128968007C0DF1460208911146089AD4
:1055D0009047109009E013981299FFF7E9FD9DF8A4
:1055E0003F0001308DF83F00FFE785E01398D0F8C9
:1055F000B002C06800280DD0FFE71398D0F8B012B1
:10560000C968007C0DF1460207911146079A904740
:10561000109009E013981299FFF7CAFD9DF83F001A
:1056200001308DF83F00FFE766E01398D0F8B00234
:10563000006900280DD0FFE71398D0F8B01209696F
:10564000007C0DF1460206911146069A9047109093
:1056500009E013981299FFF7ABFD9DF83F00013068
:105660008DF83F00FFE747E01398D0F8B00240699B
:1056700000280DD0FFE71398D0F8B0124969007CDC
:105680000DF1460205911146059A9047109009E0E8
:1056900013981299FFF78CFD9DF83F0001308DF8AB
:1056A0003F00FFE728E01398D0F8B0028069002897
:1056B0000DD0FFE71398D0F8B0128969007C0DF186
:1056C000460204911146049A9047109009E01398FD
:1056D0001299FFF76DFD9DF83F0001308DF83F00F6
:1056E000FFE709E013981299FFF762FD9DF83F006C
:1056F00001308DF83F00FFE744E01398007C00285C
:105700000CD1FFE71398D0F8B402406B0DF14601BD
:105710000390084603998847109009E0139812995E
:10572000FFF746FD9DF83F0001308DF83F00FFE791
:1057300028E01398007C00280FD1FFE71398D0F8D9
:10574000B402006B0DF146010290084602998847A9
:10575000109010980721417009E013981299FFF7F3
:1057600027FD9DF83F0001308DF83F00FFE709E07D
:1057700013981299FFF71CFD9DF83F0001308DF83A
:105780003F00FFE79DF83F00002801D0FFE72CE035
:10579000BDF8460000281ED0FFE71298C0880028F8
:1057A00019D0FFE7BDF846001299C988884204DA8B
:1057B000FFE7BDF84600019003E01298C088019011
:1057C000FFE70198ADF8460013981099BDF8462000
:1057D000FFF73EFDFFE71298C088002804D1FFE7DD
:1057E0001398FFF75DFDFFE7FFE714B080BD0000F1
:1057F00082B0019000208DF80300FFE70198007847
:10580000002809D0FFE79DF8030001308DF8030060
:10581000019801300190F1E79DF8030002B0704754
:1058200080B582B001900091019890F89C020138F7
:10583000022820D8FFE70098C088022805D0FFE79B
:1058400001980099FFF7B4FC1AE001980121C160AA
:105850000198D0F8A402002806D0FFE70198C1689B
:1058600041F00201C160FFE7019800F10C01022242
:10587000FFF7EEFC04E001980099FFF799FCFFE7C1
:1058800002B080BD80B584B00390029101920020E7
:105890008DF803000398002834D0FFE70398FFF742
:1058A000A7FF022101EB40000199088001980078D0
:1058B00002999DF80320531C8DF8033088540298F8
:1058C0009DF803104A1C8DF8032003224254FFE781
:1058D00003980078002814D0FFE70398411C039137
:1058E000007802999DF80320531C8DF803308854EA
:1058F00002989DF803104A1C8DF8032000224254A0
:10590000E6E7FFE704B080BD82B001468DF80700EE
:1059100000208DF806009DF807000246032800923B
:1059200014D80099DFE801F002060A0E00208DF875
:1059300006000FE002208DF806000BE001208DF834
:10594000060007E002208DF8060003E002208DF833
:105950000600FFE79DF8060002B0704780B584B0EE
:105960001346029001918DF803200298002804D17B
:10597000FFE702208DF80F0022E00298D0F8B40271
:10598000002805D0FFE702980021C0F8B412FFE715
:105990000198002805D0FFE701980299C1F8B002EC
:1059A000FFE70298012180F89C129DF803000299FC
:1059B0000870029800F0BCF900218DF80F10FFE785
:1059C0009DF80F0004B080BD80B584B00A460390F6
:1059D0008DF80B1000208DF80A008DF8090003984F
:1059E000D0F8C0029DF80B100192FCF7D3F88DF8A7
:1059F0000A009DF80A00FFF787FF8DF809009DF85F
:105A0000090004B080BD000080B584B00A46039050
:105A10008DF80B1000208DF80A008DF8090003980E
:105A2000D0F8C0029DF80B100192FCF75DF88DF8DC
:105A30000A009DF80A00FFF767FF8DF809009DF83E
:105A4000090004B080BD000080B58CB00B460A9000
:105A50008DF8271008929DF82700002840F08F80CD
:105A6000FFE70A98143007900A98D0F894020228A9
:105A700064D1FFE70798C1680069814215D9FFE743
:105A80000798C1680269891AC1600A980899079A3B
:105A90009289FFF771FB0A99002206900846114689
:105AA0000592059B00F0F4F947E0079881680069CA
:105AB000B1FBF0F202FB1010002820D1FFE707989D
:105AC0008168006981421AD3FFE7079880680A99C4
:105AD000D1F89812884212D2FFE70A980021049167
